1000000900614022I               220MAS ANT AM20260408A120260408000018000000000000000000000000088800510018000042893S                                                                                                                                                     
617357881       JOSE ORLANDO AHUMADA GOMEZ    00000100725059326352      S370000000008400000020260408                     100000                                                                                                                                         
679850262       RICARDO JURADO MORENO         00000100791216109096      S370000000003094750020260408                     100000                                                                                                                                         
679634019       JHON MARIO HERNANDEZ GONZALEZ 00000100719827234276      S370000000003094750020260408                     100000                                                                                                                                         
679164242       LUIS JAVIER CORTES RODRIGUEZ  00000100746778903946      S370000000003686270020260408                     100000                                                                                                                                         
628057289       NELVA MAYORGA DURAN           00000100742830945321      S370000000003883440020260408                     100000                                                                                                                                         
686006481       CARLOS ARMANDO MANJARRES PENA 00000100756766924561      S370000000011270000020260408                     100000                                                                                                                                         
61077969070     CRISTIAN CAMILO GARZON PINZON 00000100791238373579      S370000000002108890020260408                     100000                                                                                                                                         
639652381       OLGA CECILIA GOMEZ GALLEGO    00000100791290930052      S370000000002897580020260408                     100000                                                                                                                                         
61018411730     JHON EDILSON CARDENAS         0000015073144911893       S520000000003686270020260408                     100000                                                                                                                                         
679705824       YIMMY ORLANDO ESTUPINAN VARGAS00000100791200281107      S370000000002108890020260408                     100000                                                                                                                                         
61070708998     JOSE MIGUEL BERNAL SALAMANCA  000001051550488405283323  S370000000002563500020260408                     100000                                                                                                                                         
679890001       JOHN ALBEY GOMEZ DIAZ         0000015073107782416       S520000000002019000020260408                     100000                                                                                                                                         
679297592       JOSE GERMAN TORRES CARVAJAL   00000103224062485009      S370000000001911720020260408                     100000                                                                                                                                         
611449422       OSCAR EMILIO SANTANA          00000100737249009904      S370000000004395000020260408                     100000                                                                                                                                         
61038335636     JHON EDISON CARDONA QUIROS    0000015073202186750       S520000000003009000020260408                     100000                                                                                                                                         
680865359       JONATHAN CAMILO BARRIGA       0000015073163813853       S520000000001024450020260408                     100000                                                                                                                                         
694415223       YUSTED JADER PERDOMO ARBOLEDA 0000015073136873299       S520000000001227000020260408                     100000                                                                                                                                         
61063946728     JOSE EDGAR HINCAPIE GARCIA    00000100752500011433      S370000000028420000020260408                     100000                                                                                                                                         
